{
  "_format": "hh-sol-artifact-1",
  "contractName": "SafeToken",
  "sourceName": "contracts/SafeToken.sol",
  "abi": [
    {
      "inputs": [
        {
          "internalType": "address",
          "name": "owner",
          "type": "address"
        }
      ],
      "stateMutability": "nonpayable",
      "type": "constructor"
    },
    {
      "anonymous": false,
      "inputs": [
        {
          "indexed": true,
          "internalType": "address",
          "name": "owner",
          "type": "address"
        },
        {
          "indexed": true,
          "internalType": "address",
          "name": "spender",
          "type": "address"
        },
        {
          "indexed": false,
          "internalType": "uint256",
          "name": "value",
          "type": "uint256"
        }
      ],
      "name": "Approval",
      "type": "event"
    },
    {
      "anonymous": false,
      "inputs": [
        {
          "indexed": true,
          "internalType": "address",
          "name": "previousOwner",
          "type": "address"
        },
        {
          "indexed": true,
          "internalType": "address",
          "name": "newOwner",
          "type": "address"
        }
      ],
      "name": "OwnershipTransferred",
      "type": "event"
    },
    {
      "anonymous": false,
      "inputs": [
        {
          "indexed": false,
          "internalType": "address",
          "name": "account",
          "type": "address"
        }
      ],
      "name": "Paused",
      "type": "event"
    },
    {
      "anonymous": false,
      "inputs": [
        {
          "indexed": true,
          "internalType": "address",
          "name": "from",
          "type": "address"
        },
        {
          "indexed": true,
          "internalType": "address",
          "name": "to",
          "type": "address"
        },
        {
          "indexed": false,
          "internalType": "uint256",
          "name": "value",
          "type": "uint256"
        }
      ],
      "name": "Transfer",
      "type": "event"
    },
    {
      "anonymous": false,
      "inputs": [
        {
          "indexed": false,
          "internalType": "address",
          "name": "account",
          "type": "address"
        }
      ],
      "name": "Unpaused",
      "type": "event"
    },
    {
      "inputs": [
        {
          "internalType": "address",
          "name": "owner",
          "type": "address"
        },
        {
          "internalType": "address",
          "name": "spender",
          "type": "address"
        }
      ],
      "name": "allowance",
      "outputs": [
        {
          "internalType": "uint256",
          "name": "",
          "type": "uint256"
        }
      ],
      "stateMutability": "view",
      "type": "function"
    },
    {
      "inputs": [
        {
          "internalType": "address",
          "name": "spender",
          "type": "address"
        },
        {
          "internalType": "uint256",
          "name": "amount",
          "type": "uint256"
        }
      ],
      "name": "approve",
      "outputs": [
        {
          "internalType": "bool",
          "name": "",
          "type": "bool"
        }
      ],
      "stateMutability": "nonpayable",
      "type": "function"
    },
    {
      "inputs": [
        {
          "internalType": "address",
          "name": "account",
          "type": "address"
        }
      ],
      "name": "balanceOf",
      "outputs": [
        {
          "internalType": "uint256",
          "name": "",
          "type": "uint256"
        }
      ],
      "stateMutability": "view",
      "type": "function"
    },
    {
      "inputs": [],
      "name": "decimals",
      "outputs": [
        {
          "internalType": "uint8",
          "name": "",
          "type": "uint8"
        }
      ],
      "stateMutability": "view",
      "type": "function"
    },
    {
      "inputs": [
        {
          "internalType": "address",
          "name": "spender",
          "type": "address"
        },
        {
          "internalType": "uint256",
          "name": "subtractedValue",
          "type": "uint256"
        }
      ],
      "name": "decreaseAllowance",
      "outputs": [
        {
          "internalType": "bool",
          "name": "",
          "type": "bool"
        }
      ],
      "stateMutability": "nonpayable",
      "type": "function"
    },
    {
      "inputs": [
        {
          "internalType": "address",
          "name": "spender",
          "type": "address"
        },
        {
          "internalType": "uint256",
          "name": "addedValue",
          "type": "uint256"
        }
      ],
      "name": "increaseAllowance",
      "outputs": [
        {
          "internalType": "bool",
          "name": "",
          "type": "bool"
        }
      ],
      "stateMutability": "nonpayable",
      "type": "function"
    },
    {
      "inputs": [],
      "name": "name",
      "outputs": [
        {
          "internalType": "string",
          "name": "",
          "type": "string"
        }
      ],
      "stateMutability": "view",
      "type": "function"
    },
    {
      "inputs": [],
      "name": "owner",
      "outputs": [
        {
          "internalType": "address",
          "name": "",
          "type": "address"
        }
      ],
      "stateMutability": "view",
      "type": "function"
    },
    {
      "inputs": [],
      "name": "paused",
      "outputs": [
        {
          "internalType": "bool",
          "name": "",
          "type": "bool"
        }
      ],
      "stateMutability": "view",
      "type": "function"
    },
    {
      "inputs": [],
      "name": "renounceOwnership",
      "outputs": [],
      "stateMutability": "nonpayable",
      "type": "function"
    },
    {
      "inputs": [
        {
          "internalType": "contract IERC20",
          "name": "token",
          "type": "address"
        },
        {
          "internalType": "address",
          "name": "beneficiary",
          "type": "address"
        }
      ],
      "name": "rescueToken",
      "outputs": [],
      "stateMutability": "nonpayable",
      "type": "function"
    },
    {
      "inputs": [],
      "name": "symbol",
      "outputs": [
        {
          "internalType": "string",
          "name": "",
          "type": "string"
        }
      ],
      "stateMutability": "view",
      "type": "function"
    },
    {
      "inputs": [],
      "name": "totalSupply",
      "outputs": [
        {
          "internalType": "uint256",
          "name": "",
          "type": "uint256"
        }
      ],
      "stateMutability": "view",
      "type": "function"
    },
    {
      "inputs": [
        {
          "internalType": "address",
          "name": "to",
          "type": "address"
        },
        {
          "internalType": "uint256",
          "name": "amount",
          "type": "uint256"
        }
      ],
      "name": "transfer",
      "outputs": [
        {
          "internalType": "bool",
          "name": "",
          "type": "bool"
        }
      ],
      "stateMutability": "nonpayable",
      "type": "function"
    },
    {
      "inputs": [
        {
          "internalType": "address",
          "name": "from",
          "type": "address"
        },
        {
          "internalType": "address",
          "name": "to",
          "type": "address"
        },
        {
          "internalType": "uint256",
          "name": "amount",
          "type": "uint256"
        }
      ],
      "name": "transferFrom",
      "outputs": [
        {
          "internalType": "bool",
          "name": "",
          "type": "bool"
        }
      ],
      "stateMutability": "nonpayable",
      "type": "function"
    },
    {
      "inputs": [
        {
          "internalType": "address",
          "name": "newOwner",
          "type": "address"
        }
      ],
      "name": "transferOwnership",
      "outputs": [],
      "stateMutability": "nonpayable",
      "type": "function"
    },
    {
      "inputs": [],
      "name": "unpause",
      "outputs": [],
      "stateMutability": "nonpayable",
      "type": "function"
    }
  ],
  "bytecode": "0x60806040523480156200001157600080fd5b5060405162002b8338038062002b838339818101604052810190620000379190620006f3565b6040518060400160405280600a81526020017f5361666520546f6b656e000000000000000000000000000000000000000000008152506040518060400160405280600481526020017f53414645000000000000000000000000000000000000000000000000000000008152508160039080519060200190620000bb929190620005d9565b508060049080519060200190620000d4929190620005d9565b5050506000600560006101000a81548160ff02191690831515021790555062000112620001066200015860201b60201c565b6200016060201b60201c565b62000123816200016060201b60201c565b62000141816b033b2e3c9fd0803ce80000006200022660201b60201c565b620001516200039f60201b60201c565b5062000aa1565b600033905090565b6000600560019054906101000a900473ffffffffffffffffffffffffffffffffffffffff16905081600560016101000a81548173ffffffffffffffffffffffffffffffffffffffff021916908373ffffffffffffffffffffffffffffffffffffffff1602179055508173ffffffffffffffffffffffffffffffffffffffff168173ffffffffffffffffffffffffffffffffffffffff167f8be0079c531659141344cd1fd0a4f28419497f9722a3daafe3b4186f6b6457e060405160405180910390a35050565b600073ffffffffffffffffffffffffffffffffffffffff168273ffffffffffffffffffffffffffffffffffffffff16141562000299576040517f08c379a0000000000000000000000000000000000000000000000000000000008152600401620002909062000786565b60405180910390fd5b620002ad600083836200045760201b60201c565b8060026000828254620002c19190620007e1565b92505081905550806000808473ffffffffffffffffffffffffffffffffffffffff1673ffffffffffffffffffffffffffffffffffffffff1681526020019081526020016000206000828254620003189190620007e1565b925050819055508173ffffffffffffffffffffffffffffffffffffffff16600073ffffffffffffffffffffffffffffffffffffffff167fddf252ad1be2c89b69c2b068fc378daa952ba7f163c4a11628f55a4df523b3ef836040516200037f91906200084f565b60405180910390a36200039b600083836200058e60201b60201c565b5050565b620003af6200059360201b60201c565b15620003f2576040517f08c379a0000000000000000000000000000000000000000000000000000000008152600401620003e990620008bc565b60405180910390fd5b6001600560006101000a81548160ff0219169083151502179055507f62e78cea01bee320cd4e420270b5ea74000d11b0c9f74754ebdbfc544b05a2586200043e6200015860201b60201c565b6040516200044d9190620008ef565b60405180910390a1565b6200046f838383620005aa60201b62000c071760201c565b3073ffffffffffffffffffffffffffffffffffffffff168273ffffffffffffffffffffffffffffffffffffffff161415620004e1576040517f08c379a0000000000000000000000000000000000000000000000000000000008152600401620004d89062000982565b60405180910390fd5b620004f16200059360201b60201c565b1580620005475750620005096200015860201b60201c565b73ffffffffffffffffffffffffffffffffffffffff166200052f620005af60201b60201c565b73ffffffffffffffffffffffffffffffffffffffff16145b62000589576040517f08c379a0000000000000000000000000000000000000000000000000000000008152600401620005809062000a1a565b60405180910390fd5b505050565b505050565b6000600560009054906101000a900460ff16905090565b505050565b6000600560019054906101000a900473ffffffffffffffffffffffffffffffffffffffff16905090565b828054620005e79062000a6b565b90600052602060002090601f0160209004810192826200060b576000855562000657565b82601f106200062657805160ff191683800117855562000657565b8280016001018555821562000657579182015b828111156200065657825182559160200191906001019062000639565b5b5090506200066691906200066a565b5090565b5b80821115620006855760008160009055506001016200066b565b5090565b600080fd5b600073ffffffffffffffffffffffffffffffffffffffff82169050919050565b6000620006bb826200068e565b9050919050565b620006cd81620006ae565b8114620006d957600080fd5b50565b600081519050620006ed81620006c2565b92915050565b6000602082840312156200070c576200070b62000689565b5b60006200071c84828501620006dc565b91505092915050565b600082825260208201905092915050565b7f45524332303a206d696e7420746f20746865207a65726f206164647265737300600082015250565b60006200076e601f8362000725565b91506200077b8262000736565b602082019050919050565b60006020820190508181036000830152620007a1816200075f565b9050919050565b6000819050919050565b7f4e487b7100000000000000000000000000000000000000000000000000000000600052601160045260246000fd5b6000620007ee82620007a8565b9150620007fb83620007a8565b9250827fffffffffffffffffffffffffffffffffffffffffffffffffffffffffffffffff03821115620008335762000832620007b2565b5b828201905092915050565b6200084981620007a8565b82525050565b60006020820190506200086660008301846200083e565b92915050565b7f5061757361626c653a2070617573656400000000000000000000000000000000600082015250565b6000620008a460108362000725565b9150620008b1826200086c565b602082019050919050565b60006020820190508181036000830152620008d78162000895565b9050919050565b620008e981620006ae565b82525050565b6000602082019050620009066000830184620008de565b92915050565b7f53616665546f6b656e3a2063616e6e6f74207472616e7366657220746f6b656e60008201527f7320746f20746f6b656e20636f6e747261637400000000000000000000000000602082015250565b60006200096a60338362000725565b915062000977826200090c565b604082019050919050565b600060208201905081810360008301526200099d816200095b565b9050919050565b7f53616665546f6b656e3a20746f6b656e207472616e73666572207768696c652060008201527f7061757365640000000000000000000000000000000000000000000000000000602082015250565b600062000a0260268362000725565b915062000a0f82620009a4565b604082019050919050565b6000602082019050818103600083015262000a3581620009f3565b9050919050565b7f4e487b7100000000000000000000000000000000000000000000000000000000600052602260045260246000fd5b6000600282049050600182168062000a8457607f821691505b6020821081141562000a9b5762000a9a62000a3c565b5b50919050565b6120d28062000ab16000396000f3fe608060405234801561001057600080fd5b506004361061010b5760003560e01c80635c975abb116100a257806395d89b411161007157806395d89b4114610296578063a457c2d7146102b4578063a9059cbb146102e4578063dd62ed3e14610314578063f2fde38b146103445761010b565b80635c975abb1461022057806370a082311461023e578063715018a61461026e5780638da5cb5b146102785761010b565b8063313ce567116100de578063313ce567146101ac57806339509351146101ca5780633f4ba83a146101fa5780634707d000146102045761010b565b806306fdde0314610110578063095ea7b31461012e57806318160ddd1461015e57806323b872dd1461017c575b600080fd5b610118610360565b6040516101259190611402565b60405180910390f35b610148600480360381019061014391906114bd565b6103f2565b6040516101559190611518565b60405180910390f35b610166610415565b6040516101739190611542565b60405180910390f35b6101966004803603810190610191919061155d565b61041f565b6040516101a39190611518565b60405180910390f35b6101b461044e565b6040516101c191906115cc565b60405180910390f35b6101e460048036038101906101df91906114bd565b610457565b6040516101f19190611518565b60405180910390f35b610202610501565b005b61021e60048036038101906102199190611625565b6105ce565b005b6102286107d8565b6040516102359190611518565b60405180910390f35b61025860048036038101906102539190611665565b6107ef565b6040516102659190611542565b60405180910390f35b610276610837565b005b6102806108bf565b60405161028d91906116a1565b60405180910390f35b61029e6108e9565b6040516102ab9190611402565b60405180910390f35b6102ce60048036038101906102c991906114bd565b61097b565b6040516102db9190611518565b60405180910390f35b6102fe60048036038101906102f991906114bd565b610a65565b60405161030b9190611518565b60405180910390f35b61032e600480360381019061032991906116bc565b610a88565b60405161033b9190611542565b60405180910390f35b61035e60048036038101906103599190611665565b610b0f565b005b60606003805461036f9061172b565b80601f016020809104026020016040519081016040528092919081815260200182805461039b9061172b565b80156103e85780601f106103bd576101008083540402835291602001916103e8565b820191906000526020600020905b8154815290600101906020018083116103cb57829003601f168201915b5050505050905090565b6000806103fd610c0c565b905061040a818585610c14565b600191505092915050565b6000600254905090565b60008061042a610c0c565b9050610437858285610ddf565b610442858585610e6b565b60019150509392505050565b60006012905090565b600080610462610c0c565b90506104f6818585600160008673ffffffffffffffffffffffffffffffffffffffff1673ffffffffffffffffffffffffffffffffffffffff16815260200190815260200160002060008973ffffffffffffffffffffffffffffffffffffffff1673ffffffffffffffffffffffffffffffffffffffff168152602001908152602001600020546104f1919061178c565b610c14565b600191505092915050565b610509610c0c565b73ffffffffffffffffffffffffffffffffffffffff166105276108bf565b73ffffffffffffffffffffffffffffffffffffffff161461057d576040517f08c379a00000000000000000000000000000000000000000000000000000000081526004016105749061182e565b60405180910390fd5b6105856107d8565b6105c4576040517f08c379a00000000000000000000000000000000000000000000000000000000081526004016105bb9061189a565b60405180910390fd5b6105cc6110ec565b565b6105d6610c0c565b73ffffffffffffffffffffffffffffffffffffffff166105f46108bf565b73ffffffffffffffffffffffffffffffffffffffff161461064a576040517f08c379a00000000000000000000000000000000000000000000000000000000081526004016106419061182e565b60405180910390fd5b60008273ffffffffffffffffffffffffffffffffffffffff166370a08231306040518263ffffffff1660e01b815260040161068591906116a1565b602060405180830381865afa1580156106a2573d6000803e3d6000fd5b505050506040513d601f19601f820116820180604052508101906106c691906118cf565b90506000811161070b576040517f08c379a00000000000000000000000000000000000000000000000000000000081526004016107029061196e565b60405180910390fd5b61071683838361118e565b8273ffffffffffffffffffffffffffffffffffffffff1663a9059cbb83836040518363ffffffff1660e01b815260040161075192919061198e565b6020604051808303816000875af1158015610770573d6000803e3d6000fd5b505050506040513d601f19601f8201168201806040525081019061079491906119e3565b6107d3576040517f08c379a00000000000000000000000000000000000000000000000000000000081526004016107ca90611a82565b60405180910390fd5b505050565b6000600560009054906101000a900460ff16905090565b60008060008373ffffffffffffffffffffffffffffffffffffffff1673ffffffffffffffffffffffffffffffffffffffff168152602001908152602001600020549050919050565b61083f610c0c565b73ffffffffffffffffffffffffffffffffffffffff1661085d6108bf565b73ffffffffffffffffffffffffffffffffffffffff16146108b3576040517f08c379a00000000000000000000000000000000000000000000000000000000081526004016108aa9061182e565b60405180910390fd5b6108bd6000611193565b565b6000600560019054906101000a900473ffffffffffffffffffffffffffffffffffffffff16905090565b6060600480546108f89061172b565b80601f01602080910402602001604051908101604052809291908181526020018280546109249061172b565b80156109715780601f1061094657610100808354040283529160200191610971565b820191906000526020600020905b81548152906001019060200180831161095457829003601f168201915b5050505050905090565b600080610986610c0c565b90506000600160008373ffffffffffffffffffffffffffffffffffffffff1673ffffffffffffffffffffffffffffffffffffffff16815260200190815260200160002060008673ffffffffffffffffffffffffffffffffffffffff1673ffffffffffffffffffffffffffffffffffffffff16815260200190815260200160002054905083811015610a4c576040517f08c379a0000000000000000000000000000000000000000000000000000000008152600401610a4390611b14565b60405180910390fd5b610a598286868403610c14565b60019250505092915050565b600080610a70610c0c565b9050610a7d818585610e6b565b600191505092915050565b6000600160008473ffffffffffffffffffffffffffffffffffffffff1673ffffffffffffffffffffffffffffffffffffffff16815260200190815260200160002060008373ffffffffffffffffffffffffffffffffffffffff1673ffffffffffffffffffffffffffffffffffffffff16815260200190815260200160002054905092915050565b610b17610c0c565b73ffffffffffffffffffffffffffffffffffffffff16610b356108bf565b73ffffffffffffffffffffffffffffffffffffffff1614610b8b576040517f08c379a0000000000000000000000000000000000000000000000000000000008152600401610b829061182e565b60405180910390fd5b600073ffffffffffffffffffffffffffffffffffffffff168173ffffffffffffffffffffffffffffffffffffffff161415610bfb576040517f08c379a0000000000000000000000000000000000000000000000000000000008152600401610bf290611ba6565b60405180910390fd5b610c0481611193565b50565b505050565b600033905090565b600073ffffffffffffffffffffffffffffffffffffffff168373ffffffffffffffffffffffffffffffffffffffff161415610c84576040517f08c379a0000000000000000000000000000000000000000000000000000000008152600401610c7b90611c38565b60405180910390fd5b600073ffffffffffffffffffffffffffffffffffffffff168273ffffffffffffffffffffffffffffffffffffffff161415610cf4576040517f08c379a0000000000000000000000000000000000000000000000000000000008152600401610ceb90611cca565b60405180910390fd5b80600160008573ffffffffffffffffffffffffffffffffffffffff1673ffffffffffffffffffffffffffffffffffffffff16815260200190815260200160002060008473ffffffffffffffffffffffffffffffffffffffff1673ffffffffffffffffffffffffffffffffffffffff168152602001908152602001600020819055508173ffffffffffffffffffffffffffffffffffffffff168373ffffffffffffffffffffffffffffffffffffffff167f8c5be1e5ebec7d5bd14f71427d1e84f3dd0314c0f7b2291e5b200ac8c7c3b92583604051610dd29190611542565b60405180910390a3505050565b6000610deb8484610a88565b90507fffffffffffffffffffffffffffffffffffffffffffffffffffffffffffffffff8114610e655781811015610e57576040517f08c379a0000000000000000000000000000000000000000000000000000000008152600401610e4e90611d36565b60405180910390fd5b610e648484848403610c14565b5b50505050565b600073ffffffffffffffffffffffffffffffffffffffff168373ffffffffffffffffffffffffffffffffffffffff161415610edb576040517f08c379a0000000000000000000000000000000000000000000000000000000008152600401610ed290611dc8565b60405180910390fd5b600073ffffffffffffffffffffffffffffffffffffffff168273ffffffffffffffffffffffffffffffffffffffff161415610f4b576040517f08c379a0000000000000000000000000000000000000000000000000000000008152600401610f4290611e5a565b60405180910390fd5b610f56838383611259565b60008060008573ffffffffffffffffffffffffffffffffffffffff1673ffffffffffffffffffffffffffffffffffffffff16815260200190815260200160002054905081811015610fdc576040517f08c379a0000000000000000000000000000000000000000000000000000000008152600401610fd390611eec565b60405180910390fd5b8181036000808673ffffffffffffffffffffffffffffffffffffffff1673ffffffffffffffffffffffffffffffffffffffff16815260200190815260200160002081905550816000808573ffffffffffffffffffffffffffffffffffffffff1673ffffffffffffffffffffffffffffffffffffffff168152602001908152602001600020600082825461106f919061178c565b925050819055508273ffffffffffffffffffffffffffffffffffffffff168473ffffffffffffffffffffffffffffffffffffffff167fddf252ad1be2c89b69c2b068fc378daa952ba7f163c4a11628f55a4df523b3ef846040516110d39190611542565b60405180910390a36110e6848484611364565b50505050565b6110f46107d8565b611133576040517f08c379a000000000000000000000000000000000000000000000000000000000815260040161112a90611f58565b60405180910390fd5b6000600560006101000a81548160ff0219169083151502179055507f5db9ee0a495bf2e6ff9c91a7834c1ba4fdd244a5e8aa4e537bd38aeae4b073aa611177610c0c565b60405161118491906116a1565b60405180910390a1565b505050565b6000600560019054906101000a900473ffffffffffffffffffffffffffffffffffffffff16905081600560016101000a81548173ffffffffffffffffffffffffffffffffffffffff021916908373ffffffffffffffffffffffffffffffffffffffff1602179055508173ffffffffffffffffffffffffffffffffffffffff168173ffffffffffffffffffffffffffffffffffffffff167f8be0079c531659141344cd1fd0a4f28419497f9722a3daafe3b4186f6b6457e060405160405180910390a35050565b611264838383610c07565b3073ffffffffffffffffffffffffffffffffffffffff168273ffffffffffffffffffffffffffffffffffffffff1614156112d3576040517f08c379a00000000000000000000000000000000000000000000000000000000081526004016112ca90611fea565b60405180910390fd5b6112db6107d8565b158061132057506112ea610c0c565b73ffffffffffffffffffffffffffffffffffffffff166113086108bf565b73ffffffffffffffffffffffffffffffffffffffff16145b61135f576040517f08c379a00000000000000000000000000000000000000000000000000000000081526004016113569061207c565b60405180910390fd5b505050565b505050565b600081519050919050565b600082825260208201905092915050565b60005b838110156113a3578082015181840152602081019050611388565b838111156113b2576000848401525b50505050565b6000601f19601f8301169050919050565b60006113d482611369565b6113de8185611374565b93506113ee818560208601611385565b6113f7816113b8565b840191505092915050565b6000602082019050818103600083015261141c81846113c9565b905092915050565b600080fd5b600073ffffffffffffffffffffffffffffffffffffffff82169050919050565b600061145482611429565b9050919050565b61146481611449565b811461146f57600080fd5b50565b6000813590506114818161145b565b92915050565b6000819050919050565b61149a81611487565b81146114a557600080fd5b50565b6000813590506114b781611491565b92915050565b600080604083850312156114d4576114d3611424565b5b60006114e285828601611472565b92505060206114f3858286016114a8565b9150509250929050565b60008115159050919050565b611512816114fd565b82525050565b600060208201905061152d6000830184611509565b92915050565b61153c81611487565b82525050565b60006020820190506115576000830184611533565b92915050565b60008060006060848603121561157657611575611424565b5b600061158486828701611472565b935050602061159586828701611472565b92505060406115a6868287016114a8565b9150509250925092565b600060ff82169050919050565b6115c6816115b0565b82525050565b60006020820190506115e160008301846115bd565b92915050565b60006115f282611449565b9050919050565b611602816115e7565b811461160d57600080fd5b50565b60008135905061161f816115f9565b92915050565b6000806040838503121561163c5761163b611424565b5b600061164a85828601611610565b925050602061165b85828601611472565b9150509250929050565b60006020828403121561167b5761167a611424565b5b600061168984828501611472565b91505092915050565b61169b81611449565b82525050565b60006020820190506116b66000830184611692565b92915050565b600080604083850312156116d3576116d2611424565b5b60006116e185828601611472565b92505060206116f285828601611472565b9150509250929050565b7f4e487b7100000000000000000000000000000000000000000000000000000000600052602260045260246000fd5b6000600282049050600182168061174357607f821691505b60208210811415611757576117566116fc565b5b50919050565b7f4e487b7100000000000000000000000000000000000000000000000000000000600052601160045260246000fd5b600061179782611487565b91506117a283611487565b9250827fffffffffffffffffffffffffffffffffffffffffffffffffffffffffffffffff038211156117d7576117d661175d565b5b828201905092915050565b7f4f776e61626c653a2063616c6c6572206973206e6f7420746865206f776e6572600082015250565b6000611818602083611374565b9150611823826117e2565b602082019050919050565b600060208201905081810360008301526118478161180b565b9050919050565b7f53616665546f6b656e3a20746f6b656e206973206e6f74207061757365640000600082015250565b6000611884601e83611374565b915061188f8261184e565b602082019050919050565b600060208201905081810360008301526118b381611877565b9050919050565b6000815190506118c981611491565b92915050565b6000602082840312156118e5576118e4611424565b5b60006118f3848285016118ba565b91505092915050565b7f546f6b656e526573637565723a204e6f20746f6b656e7320746f20726573637560008201527f6500000000000000000000000000000000000000000000000000000000000000602082015250565b6000611958602183611374565b9150611963826118fc565b604082019050919050565b600060208201905081810360008301526119878161194b565b9050919050565b60006040820190506119a36000830185611692565b6119b06020830184611533565b9392505050565b6119c0816114fd565b81146119cb57600080fd5b50565b6000815190506119dd816119b7565b92915050565b6000602082840312156119f9576119f8611424565b5b6000611a07848285016119ce565b91505092915050565b7f546f6b656e526573637565723a20436f756c64206e6f7420726573637565207460008201527f6f6b656e00000000000000000000000000000000000000000000000000000000602082015250565b6000611a6c602483611374565b9150611a7782611a10565b604082019050919050565b60006020820190508181036000830152611a9b81611a5f565b9050919050565b7f45524332303a2064656372656173656420616c6c6f77616e63652062656c6f7760008201527f207a65726f000000000000000000000000000000000000000000000000000000602082015250565b6000611afe602583611374565b9150611b0982611aa2565b604082019050919050565b60006020820190508181036000830152611b2d81611af1565b9050919050565b7f4f776e61626c653a206e6577206f776e657220697320746865207a65726f206160008201527f6464726573730000000000000000000000000000000000000000000000000000602082015250565b6000611b90602683611374565b9150611b9b82611b34565b604082019050919050565b60006020820190508181036000830152611bbf81611b83565b9050919050565b7f45524332303a20617070726f76652066726f6d20746865207a65726f2061646460008201527f7265737300000000000000000000000000000000000000000000000000000000602082015250565b6000611c22602483611374565b9150611c2d82611bc6565b604082019050919050565b60006020820190508181036000830152611c5181611c15565b9050919050565b7f45524332303a20617070726f766520746f20746865207a65726f20616464726560008201527f7373000000000000000000000000000000000000000000000000000000000000602082015250565b6000611cb4602283611374565b9150611cbf82611c58565b604082019050919050565b60006020820190508181036000830152611ce381611ca7565b9050919050565b7f45524332303a20696e73756666696369656e7420616c6c6f77616e6365000000600082015250565b6000611d20601d83611374565b9150611d2b82611cea565b602082019050919050565b60006020820190508181036000830152611d4f81611d13565b9050919050565b7f45524332303a207472616e736665722066726f6d20746865207a65726f20616460008201527f6472657373000000000000000000000000000000000000000000000000000000602082015250565b6000611db2602583611374565b9150611dbd82611d56565b604082019050919050565b60006020820190508181036000830152611de181611da5565b9050919050565b7f45524332303a207472616e7366657220746f20746865207a65726f206164647260008201527f6573730000000000000000000000000000000000000000000000000000000000602082015250565b6000611e44602383611374565b9150611e4f82611de8565b604082019050919050565b60006020820190508181036000830152611e7381611e37565b9050919050565b7f45524332303a207472616e7366657220616d6f756e742065786365656473206260008201527f616c616e63650000000000000000000000000000000000000000000000000000602082015250565b6000611ed6602683611374565b9150611ee182611e7a565b604082019050919050565b60006020820190508181036000830152611f0581611ec9565b9050919050565b7f5061757361626c653a206e6f7420706175736564000000000000000000000000600082015250565b6000611f42601483611374565b9150611f4d82611f0c565b602082019050919050565b60006020820190508181036000830152611f7181611f35565b9050919050565b7f53616665546f6b656e3a2063616e6e6f74207472616e7366657220746f6b656e60008201527f7320746f20746f6b656e20636f6e747261637400000000000000000000000000602082015250565b6000611fd4603383611374565b9150611fdf82611f78565b604082019050919050565b6000602082019050818103600083015261200381611fc7565b9050919050565b7f53616665546f6b656e3a20746f6b656e207472616e73666572207768696c652060008201527f7061757365640000000000000000000000000000000000000000000000000000602082015250565b6000612066602683611374565b91506120718261200a565b604082019050919050565b6000602082019050818103600083015261209581612059565b905091905056fea2646970667358221220a368f719696af082bbf825ebf1efe070741e2ab87b4d745e60398e47e70272f864736f6c634300080b0033",
  "linkReferences": {},
  "deployedLinkReferences": {}
}